:020000040800F2
:10000000B8060020290200086D0400086F040008EB
:1000100073040008770400087B0400080000000057
:100020000000000000000000000000007F04000845
:100030008104000800000000830400088504000813
:100040004302000843020008430200084904000874
:100050004302000843020008870400084302000826
:10006000430200084302000843020008430200085C
:10007000430200084302000843020008430200084C
:10008000430200084302000843020008430200083C
:10009000430200084302000843020008430200082C
:1000A000430200084302000843020008430200081C
:1000B000430200084302000843020008430200080C
:1000C00043020008430200084302000843020008FC
:1000D00043020008430200084302000843020008EC
:1000E00043020008250400084302000843020008F8
:1000F00043020008430200084302000843020008CC
:1001000043020008430200084302000843020008BB
:1001100043020008430200084302000843020008AB
:10012000430200084302000843020008430200089B
:10013000430200084302000843020008430200088B
:10014000430200084302000843020008430200087B
:10015000430200084302000843020008430200086B
:10016000430200084302000843020008430200085B
:10017000430200084302000843020008430200084B
:10018000430200084302000800F002F800F03CF8C7
:100190000AA090E8000C82448344AAF10107DA45E2
:1001A00001D100F031F8AFF2090EBAE80F0013F0F8
:1001B000010F18BFFB1A43F001031847C42C0000BD
:1001C000E42C0000103A24BF78C878C1FAD852074E
:1001D00024BF30C830C144BF04680C6070470000C1
:1001E0000023002400250026103A28BF78C1FBD840
:1001F000520728BF30C148BF0B6070471FB502F0DF
:100200000EFE1FBD10B510BD02F0D3FD1146FFF765
:10021000F5FF00F0FBF802F0F1FD03B4FFF7F2FF89
:1002200003BC02F0F5FD000009488047094800477B
:10023000FEE7FEE7FEE7FEE7FEE7FEE7FEE7FEE796
:10024000FEE7FEE704480549054A064B70470000F3
:100250007305000889010008B8000020B8060020D6
:10026000B8020020B802002000B587B04FF400307B
:1002700000F0E1FC4FF40030009000208DF8040005
:1002800008208DF8050001208DF80600684600F072
:100290005BFC29208DF808000F208DF80900002054
:1002A0008DF80A0001208DF80B0002A800F0FFF97C
:1002B00000214FF4807001F077FC02208DF81800C7
:1002C000400705904000049000208DF80F000B209F
:1002D0008DF80C0003208DF80D0000208DF80E0025
:1002E00003AA4FF4807101F0A8FB0121080301F07B
:1002F0004FFF0121080201F057FC07B000BD00B517
:1003000089B00121080701F004F8012000F0D5FDB3
:10031000012000F0B1FE4FF4C06000F0C3F90320EB
:100320008DF80C0001208DF80D0000208DF80E00D6
:1003300001208DF80F0003A800F0B9F94FF48000F8
:1003400000F079FC4FF48000019000208DF8080047
:1003500008208DF8090001208DF80A0001A800F09E
:10036000F3FB00BF412000F040FE0028FAD04FF41C
:10037000807000F075FF012000F08DFF01F0D4F8CF
:100380004FF4804001F070FF4FF4800000F053FC08
:100390007F200790FF2008900020069006A801F01B
:1003A0008AF943F2F221002001F06FFE0F208DF850
:1003B000130008208DF8110012208DF81200022081
:1003C0008DF8100004A9002001F0AEFA00208DF88D
:1003D00017000B208DF8140002208DF815001E2048
:1003E0008DF8160005A9002001F000FA002001F0A8
:1003F0003BFC40F2FF7001F04CFC0121880301F04E
:10040000C7FE012001F055FC09B000BDFFF777FFE2
:10041000FFF72AFF012002F081FA002002F07EFAA5
:1004200000BFFEE710B54FF4805001F0FEFE50B162
:100430004FF4805001F018FF4FF4003000F0FBFB48
:10044000012002F09AFA10BD10B54FF4804001F07F
:10045000ECFE50B14FF4804001F006FF4FF48000F5
:1004600000F0E9FB002002F088FA10BD704700BFE1
:10047000FEE700BFFEE700BFFEE700BFFEE77047F4
:1004800070477047704710B5012000F0C3FB10B1F2
:10049000012000F0D0FB10BD0CB5002001900090B1
:1004A0007548006840F480307349086000BF7248A6
:1004B000006800F4003000900198401C0190009802
:1004C00018B90198B0F5A06FF1D16B48006810F42D
:1004D000003F02D00120009001E000200090009831
:1004E000012845D164484030006840F0805062499E
:1004F000403108606148006840F480405F4908600E
:100500005D48083000685C490831086008460068AA
:1005100040F4004008600846006840F4A0500860BD
:100520005748091F0860081F006840F08070091FC5
:10053000086000BF5048006810F0007FFAD040F219
:100540000560504908604C480830006820F00300FE
:100550004949083108600846006840F00200086018
:1005600000BF45480830006800F00C000828F8D1AA
:100570000CBD10B54448006840F470004249086062
:100580003D48006840F001003B49086000203A49BE
:1005900008310860384800683C490840364908601E
:1005A0003B48091D0860081F006820F48020091FCF
:1005B0000860002030490C310860FFF76DFF4FF0F4
:1005C000006031498039086010BD70B500200022FC
:1005D000022300240221284D08352D6805F00C0067
:1005E00020B1042806D0082834D107E0294D2A4E2E
:1005F000356033E0294D284E35602FE01E4D2D1D0E
:100600002D68C5F380541C4D2D1D2D6805F03F014C
:1006100054B1224DB5FBF1F5174E361D3668C6F3C1
:10062000881605FB06F209E01A4DB5FBF1F5124EEE
:10063000361D3668C6F3881605FB06F20E4D2D1DD5
:100640002D68C5F301456D1C6B00B2FBF3F5124E2E
:10065000356003E00F4D104E356000BF00BF064D02
:1006600008352D68C5F303150D4E705D0A4D2D68D4
:10067000C540094E356070BD003802400070004032
:1006800008484006003C024088ED00E0FFFFF6FE0F
:10069000103000240024F4000000002000127A0032
:1006A0000400002033490143334A1160704770B59C
:1006B000002100230F22C47824B32F4C246804F4B3
:1006C000E064C4F5E064C4F30721C1F10404E3B2BB
:1006D0000A4144789C40E1B28478144021430C07DD
:1006E000210E264C05786155047804F01F0501247D
:1006F000AC4005786D114FF0E02606EB8505C5F896
:10070000004109E0047804F01F040125A5401C4CB9
:100710000678761144F8265070BD1A4A0A40024302
:10072000154B1B1F1A60704739B1134A121D12680E
:100730000243114B1B1D1A6006E00F4A121D12687E
:1007400082430D4B1B1D1A607047042808D14FF0DF
:10075000E021096941F004014FF0E022116107E056
:100760004FF0E021096921F004014FF0E02211610E
:10077000704700000000FA050CED00E000E400E026
:1007800080E100E080FFFF1F016821F001010160AE
:100790000021016041608160C160016121214161EE
:1007A000DA49884204D13D21D84A103A91608CE060
:1007B000D6491831884205D14FF47461D34A103AB2
:1007C000916082E0D1493031884205D14FF47411F3
:1007D000CE4A103A916078E0CC494831884205D140
:1007E0004FF07461C94A103A91606EE0C7496031B8
:1007F000884204D1C649C54A103AD16065E0C34970
:100800007831884204D1C349C04A103AD1605CE0D3
:10081000BE499031884204D1BF49BC4A103AD160E8
:1008200053E0BA49A831884205D14FF03D51B74A4B
:10083000103AD16049E0B949884204D13D21B74A14
:10084000083A116041E0B5491831884205D14FF4AA
:100850007461B24A083A116037E0B04930318842D9
:1008600005D14FF47411AD4A083A11602DE0AB493F
:100870004831884205D14FF07461A84A083A1160A6
:1008800023E0A6496031884204D1A149A34A121F3E
:1008900011601AE0A1497831884204D19D499F4AEC
:1008A000121F116011E09D499031884204D19A498C
:1008B0009A4A121F116008E09849A831884204D171
:1008C0004FF03D51954A121F1160704710B500223C
:1008D0000268934B1A40CC680B6823434C6923434E
:1008E0008C692343CC6923430C6A23434C6A23431A
:1008F0008C6A23434C6B23438C6B23431A43026063
:10090000426922F00702D1E90B3423431A434261C2
:100910000B6943604B6883608B68C36010BD002126
:10092000016041608160C160016141618161C161BB
:10093000016241628162C162016341638163704708
:1009400021B1026842F00102026003E0026822F075
:1009500001020260704721B1026842F40042026065
:1009600003E0026822F400420260704721B102688D
:1009700042F02002026003E0026822F020020260DE
:100980007047416070470146486880B2704722B1A5
:10099000036843F40023036003E0036823F40023A7
:1009A00003600161704721B1026842F48022026055
:1009B00003E0026822F48022026070470AB10161FC
:1009C00000E0C1607047014600200A6812F4002F61
:1009D00001D0012000E000207047014600200A6895
:1009E00012F0010F01D0012000E000207047014605
:1009F00000204A6902F03800704730B503460A46C5
:100A000000200024454DAB4202D24049103901E09C
:100A10004249103912F0005F01D04C6800E00C68C8
:100A2000404D2C40144201D0012000E0002030BD98
:100A300002463A4B9A4202D23448103801E0374815
:100A4000103811F0005F03D0364B0B40C36002E05A
:100A5000344B0B408360704710B511F0800F09D004
:100A600022B1436943F08003436103E0436923F00B
:100A70008003436180290BD02AB1036801F01E0472
:100A80002343036004E0036801F01E04A3430360F2
:100A900010BD70B502460020002400251F4EB24252
:100AA00002D21A4B103B01E01C4B103B1E4E314250
:100AB00006D01E2606EAD124166806EA040502E0DE
:100AC000566906F0800511F0005F01D05C6800E017
:100AD0001C68144E34400C4202D00DB1012000E0DD
:100AE000002070BD02460D4B9A4202D207481038D2
:100AF00001E00A48103811F0005F03D0094B0B40A9
:100B0000C36002E0074B0B408360704710600240F7
:100B10003D000020400F002000003D2010640240F6
:100B20003F801CF07D0F7D0F3C0F3C0F002044499F
:100B30000860091D0860091D0860091D086041481A
:100B40003F4914310860704700213D498279002AED
:100B50003AD00A46126803689A430B461A600A1D87
:100B6000126803689A430B1D1A60027911440A68DF
:100B700003681A430A60324A0832126803689A43CB
:100B80002F4B08331A601A1D126803689A432C4BC6
:100B90000C331A604279102A0ED11A1F12680368AA
:100BA0001A43274B08331A601A1D126803681A4348
:100BB000234B0C331A600DE02149427911440A6835
:100BC00003681A430A6005E0027911440A68036861
:100BD0009A430A6070470021016001710C21417144
:100BE0000021817170471649103109680143144A88
:100BF00010321160704701460020114A1432126809
:100C00000A4201D0012000E0002070470C49143155
:100C100008607047014600200022094B1B6803EA68
:100C20000102074B14331B680B4202D00AB10120AA
:100C300000E000207047024914310860704700004E
:100C4000003C0140FFFF7F0010B504468C48844201
:100C500008D10121084600F07EFB0021012000F0B0
:100C60007AFB5EE08748844208D10121022000F02F
:100C700072FB0021022000F06EFB52E082488442A9
:100C800008D10121042000F066FB0021042000F0BF
:100C900062FB46E07D48844208D10121082000F033
:100CA0005AFB0021082000F056FB3AE078488442C5
:100CB00008D10121102000F04EFB0021102000F08F
:100CC0004AFB2EE07348844208D10121202000F025
:100CD00042FB0021202000F03EFB22E06E488442CF
:100CE00008D10121402000F036FB0021402000F017
:100CF00032FB16E06948844208D10121802000F0CF
:100D00002AFB0021802000F026FB0AE06448844290
:100D100007D10121801500F01EFB0021A01500F075
:100D20001AFB10BDF0B50A4600210023002400BFC5
:100D30003DE0012505FA01F3156805EA03049C422C
:100D400034D105684F000326BE40B54305601579D0
:100D50004E00B5400668354305601579012D02D077
:100D60001579022D16D185684F000326BE40B54384
:100D7000856055794E00B540866835438560456885
:100D800001268E40B5434560456896798E40B6B2DF
:100D900035434560C5684F000326BE40B543C56076
:100DA000D5794E00B540C6683543C560491C102949
:100DB000BFD3F0BD4FF6FF71016000210171417199
:100DC0008171C171704708B54FF480320092009A6A
:100DD0000A430092009AC261C161009AC261C2696D
:100DE0000092C269009208BD0246002013690B42BE
:100DF00001D0012000E0002070470146086980B260
:100E000070470246002053690B4201D0012000E0E8
:100E1000002070470146486980B2704701837047DF
:100E2000418370470AB1018300E04183704741610B
:100E3000704742694A4042617047F0B50023002480
:100E40004D07ED0E02FA05F3CE1000F1200555F81E
:100E500026504E07F70E0F26BE40B543CF1000F1C7
:100E6000200646F82750CE1000F1200555F82650F0
:100E700045EA0304CE1000F1200545F82640F0BDF8
:100E8000000002400004024000080240000C024042
:100E9000001002400014024000180240001C0240F2
:100EA0000020024010B50121080700F09AFA002145
:100EB0004FF0805000F095FA10BD34490862704739
:100EC00001460020324A106820F0E000084310601C
:100ED00070472E49086170472E49086070472E49B7
:100EE0000860704730B92A49096821F48041284ACE
:100EF000116005E02649096841F48041244A1160E7
:100F0000704722494862704710B502460020204BC6
:100F1000186820F0030010431860204B1B6843F052
:100F200004031E4C2360012901D130BF00E020BF23
:100F30001A4B1B6823F00403184C236010BD14489F
:100F4000006840F00400124908600846006840F05C
:100F5000020008601148006840F004000F49086072
:100F600000BF00BF30BF704701460020084A5268EA
:100F70000A4201D0012000E00020704704490968BE
:100F800041EA8001024A11607047000000000E42F1
:100F900000700040A0000E42A4000E4210ED00E0E0
:100FA000FA48006840F00100F84908600020F7495D
:100FB00008310860F5480068F5490840F3490860C1
:100FC000F448091D0860081F006820F48020091FEC
:100FD00008600020ED490C31086070470021EB4AA1
:100FE000921C117011460870704710B5014600221E
:100FF000002300204A11012A02D1E44C236808E0B2
:10100000022A03D1E14C7034236802E0DF4C7434CF
:10101000236801F01F02012494401C4201D00120EA
:1010200000E0002010BD38B500200090002400250D
:1010300000BF3120FFF7D9FF05460098401C009003
:101040000098B0F5A06F01D0002DF2D03120FFF74D
:10105000CCFF08B1012400E00024204638BD014641
:101060000020CA4A106820F0F80040EAC100106071
:101070007047C949086070470021C44A7032117036
:101080001170012802D004280AD104E00121BF4ACE
:101090007032117005E00521BC4A7032117000E019
:1010A00000BF00BF7047BD490860704770B5049C21
:1010B00041EA82150126C6EB530645EA064505437B
:1010C00045EA0465B14E361D356070BDB24908660B
:1010D0007047820142EA0172AC4B84331A60704758
:1010E000AD4988667047AC49C86470470246002025
:1010F000A64B0833186820F0EC6042EA010318435D
:10110000A24B083318607047024600209F4B0833FB
:10111000186820F0784042EA010318439B4B0833DB
:101120001860704701460020984A0832106820F085
:10113000030008431060704794480830006800F0CE
:101140000C00704701460020904A0832106820F0D9
:10115000F000084310607047014600208B4A0832B7
:10116000106820F4E05008431060704701460020EA
:10117000864A0832106820F4604040EAC1001060DE
:101180007047F0B50021002200240225002602232A
:101190007E4F08373F6807F00C0121B1042905D0C4
:1011A000082937D105E07E4F076036E07D4F0760A4
:1011B00033E0764F3F1D3F68C7F38056734F3F1DA6
:1011C0003F6807F03F036EB1764FB7FBF3F7DFF8E8
:1011D000BCC10CF1040CDCF800C0CCF3881C07FB8C
:1011E0000CF40CE06E4FB7FBF3F7DFF8A0C10CF185
:1011F000040CDCF800C0CCF3881C07FB0CF4634F34
:101200003F1D3F68C7F301477F1C7D00B4FBF5F726
:10121000076002E0624F076000BF00BF5B4F083706
:101220003F6807F0F00109095F4F7A5C0768D74013
:101230004760564F08373F6807F4E051890A5A4F14
:101240007A5C4768D7408760504F08373F6807F49B
:101250006041490B544F7A5C4768D740C760F0BD86
:10126000002100F44072B2F5407F0AD1474A0832AB
:10127000116821F4F8114D4A02401143434A0832E3
:101280001160424A70321268C0F30B031A433F4B9D
:1012900070331A60704741494439086070473F49CC
:1012A00040390860704742490860704739B1374A91
:1012B000303212680243354B30331A6006E0334A4D
:1012C000303212688243314B30331A60704739B183
:1012D0002E4A3432126802432C4B34331A6006E033
:1012E0002A4A343212688243284B34331A607047DA
:1012F00039B1264A383212680243244B38331A6017
:1013000006E0224A383212688243204B38331A6092
:10131000704739B11D4A4032126802431B4B4033BB
:101320001A6006E0194A403212688243174B403374
:101330001A60704739B1154A443212680243134BA0
:1013400044331A6006E0114A4432126882430F4B5C
:1013500044331A60704739B10C4A103212680243A4
:101360000A4B10331A6006E0084A103212688243B2
:10137000064B10331A607047E1B1044A1432126808
:101380000243024B14331A6019E000000038024097
:10139000FFFFF6FE1030002400004742800E474257
:1013A0000024F40000127A0014000020FFFCFF0F5C
:1013B0005C0147425B4A126882435A4B1A6070478D
:1013C00039B1584A121D12680243564B1B1D1A6050
:1013D00006E0544A121D12688243524B1B1D1A60CC
:1013E000704739B14F4A0C32126802434D4B0C33EF
:1013F0001A6006E04B4A0C3212688243494B0C33A8
:101400001A60704739B1474A103212680243454B9F
:1014100010331A6006E0434A103212688243414B8F
:1014200010331A60704739B13E4A3C3212680243A9
:101430003C4B3C331A6006E03A4A3C321268824325
:10144000384B3C331A60704739B1364A4032126823
:101450000243344B40331A6006E0324A403212688D
:101460008243304B40331A60704739B12D4A4432C1
:10147000126802432B4B44331A6006E0294A443277
:1014800012688243274B44331A60704739B1254AAA
:101490004C3212680243234B4C331A6006E0214A57
:1014A0004C32126882431F4B4C331A60704739B17B
:1014B0001C4A5032126802431A4B50331A6006E03D
:1014C000184A503212688243164B50331A607047E4
:1014D00039B1144AD21F12780243124BDB1F1A7023
:1014E00006E0104AD21F127882430E4BDB1F1A709F
:1014F00070470C486030006840F0807009496031E6
:101500000860704701460020064A083A12680A42FD
:1015100001D0012000E0002070470249891F0870B7
:10152000704700001438024008B5002200920020E5
:101530000021CA22F94B1A6053221A60F74A183A5E
:10154000126822F0A002F54B183B1A6000BFF34A64
:10155000183A126802F02001009A521C0092009A78
:10156000B2F5003F01D00029F1D0EC4A183A1268D8
:1015700012F0200F01D0012000E00020FF22E74BF5
:101580001A6008BD08B50022009200200021E34A3D
:10159000183A126812F0400F1CD1421EDF4B183B64
:1015A0001A6000BFDD4A183A126802F04001009A42
:1015B000521C0092009AB2F5803F01D00029F1D070
:1015C000D64A183A126812F0400F01D0012002E00A
:1015D000002000E0012008BD38B500200090002464
:1015E0000025CA20CD49086053200860FFF7CAFFD4
:1015F00000B952E00020C9492439086042F20110C4
:10160000091D0860081D006800F00700091D08603A
:1016100000BFC2481838006800F004040098401C5D
:1016200000900098B0F5803F01D0002CF1D0BB486D
:101630001838006810F0040F01D100252DE0B748DC
:101640001C3800680020B5491C3908604FF6FF704F
:10165000B24910390860B248091F08600020AF493C
:101660000C390860091D0860091D0860AB49083184
:101670000860AA4918310860A84920310860091D8E
:101680000860A64918390860A4491C310860FFF7B2
:101690004BFF08B9002500E00125FF209F490860A5
:1016A000284638BD9D481838006820F080009B49C6
:1016B00018390860704730B504460025CA2097499C
:1016C000086053200860FFF75DFF00B91DE09348F4
:1016D0001C38006820F0400090491C39086008461A
:1016E0000068216808438D491C3908608B4914390A
:1016F000A068086008460068A18840EA0140874960
:1017000014390860FFF7CEFF0125FF2083490860E8
:10171000284630BD002101607F214160FF218160AA
:10172000704718B1FF217D4A116004E0CA217B4A4D
:10173000116053211160704730B504460025CA205E
:101740007649086053200860FFF71CFF00B914E0D9
:1017500044B172481C38006840F010006F491C39D1
:10176000086007E06D481C38006820F010006B49E5
:101770001C390860FFF796FF0125FF2067490860C4
:10178000284630BDCA21654A11605321116040B11D
:1017900062491C39096841F02001604A1C3A116015
:1017A00007E05E491C39096801F0DF015B4A1C3A19
:1017B0001160FF21594A116070470146002204E080
:1017C000501CC2B2A1F10A00C1B20A29F8DA10070E
:1017D00041EA10607047014600BF080900EB800035
:1017E000420001F00F001044C0B270472DE9F041F3
:1017F00005460C460026002755B948481C380068A5
:1018000010F0400F00D002E00020E07000BF0EE0BA
:1018100042481C38006810F0400F04D02078FFF7D1
:10182000DAFF064602E00020E07000BF00BF55B1BD
:1018300020780004617840EA0120A1780843E1782B
:1018400040EA014611E02078FFF7B7FF4FEA004871
:101850006078FFF7B2FF48EA0028A078FFF7ADFFF5
:1018600048EA0008E07848EA0046CA202B490860A8
:1018700053200860FFF786FE08B9002714E02948C6
:101880003040264924390860FFF70CFF23481C38F4
:10189000006810F0200F06D1FFF746FE08B90027B8
:1018A00002E0012700E00127FF201C4908603846BC
:1018B000BDE8F0810021C1700170417081707047F6
:1018C00070B506460C4600251448243800681549B2
:1018D00000EA0105C5F305402070C5F306206070DD
:1018E00005F07F00A07005F48000000CE0705EB988
:1018F0002078FFF770FF20706078FFF76CFF607052
:10190000A078FFF768FFA07070BD00200349091D93
:1019100008680249203909687047000024280040FF
:10192000FF007F007F7F7F002DE9F04105460C46D8
:10193000002600274DB9607800F01000102804D16F
:10194000607820F010000A30607005B908E0607817
:10195000FFF741FF0646A078FFF73DFF064600BFB0
:1019600055B1E0780004617840EA0120A17808438D
:10197000217840EA413611E0E078FFF71EFF4FEA98
:1019800000486078FFF719FF48EA0028A078FFF7C1
:1019900014FF48EA0008207848EA4036CA20FE4989
:1019A000086053200860FFF7EDFD08B9002714E038
:1019B000FA483040F84920390860FFF773FEF648CE
:1019C0001C38006810F0200F06D1FFF7ADFD08B9F4
:1019D000002702E0012700E00127FF20EE49086010
:1019E0003846BDE8F081012101708170417000210D
:1019F000C170704770B506460C460025E648203891
:101A00000068E64900EA0105280CE070C5F30420EF
:101A1000607005F03F00A070C5F3423020705EB9E1
:101A2000E078FFF7D8FEE0706078FFF7D4FE6070D2
:101A3000A078FFF7D0FEA07070BD2DE9F0410546FB
:101A40000E46144600276DB9D3481C38006810F0C4
:101A5000400F00D002E00020E07000BFA06800B995
:101A60001AE019E0CC481C38006810F0400F04D090
:101A70002078FFF7B0FE074602E00020E07000BFCC
:101A8000A06820B9207BFFF7A6FE074604E0207B74
:101A9000FFF7A1FE074600BF95B1207800046178EA
:101AA00040EA0120A1780843E17840EA0140217B27
:101AB00040EA0160A1680843616840EA01071BE051
:101AC0002078FFF77AFE4FEA00486078FFF775FE4E
:101AD00048EA0028A078FFF770FE48EA0008E0789E
:101AE00048EA0048207BFFF768FE48EA0060A168EA
:101AF0000843616840EA0107CA20A74908605320EB
:101B00000860B6F5807F03D1A3480838076002E07B
:101B1000A148001F0760FF209F490860BDE8F081D1
:101B20000021C170017041708170816001210173D9
:101B30000021416070472DE9F04106460F461446EA
:101B40000025B7F5807F03D193480838056802E087
:101B50009148001F0568C5F305402070C5F30620B5
:101B6000607005F07F00A07005F48000000CE0704C
:101B7000C5F30560207305F08040A06005F080305B
:101B800060607EB92078FFF726FE20706078FFF74E
:101B900022FE6070A078FFF71EFEA070207BFFF78A
:101BA0001AFE2073BDE8F08138B502460024009487
:101BB00000230020CA24784D2C6053242C6041B1AE
:101BC000754C1C3C24681443734D1C3D2C60012053
:101BD0001EE0714C1C3C246894436F4D1C3D2C60EE
:101BE00000BF6D4C183C246804EA1223009C641C5E
:101BF0000094009CB4F5803F01D0002BF1D0664CDE
:101C0000183C246814EA122F01D1002000E00120C2
:101C1000FF24614D2C6038BD30B50023CA245E4DD1
:101C20002C6053242C6041EA0203B0F5807F03D17D
:101C3000594C2034236002E0574C24342360FF24A5
:101C4000554D2C6030BD01460020B1F5807F05D197
:101C5000514A20321268C2F30E0004E04E4A243288
:101C60001268C2F30E007047CA214B4A116053211B
:101C7000116049491C39096821F00701464A1C3A9C
:101C800011601146096801431160FF21424A116049
:101C90007047CA21404A1160532111603E491039F2
:101CA0000860FF21116070473B481038006880B21F
:101CB000704718B501460023009300220020CA2374
:101CC000354C23605323236049B1334B1C3B1B68C5
:101CD00043F48063304C1C3C236001201FE02E4BFA
:101CE0001C3B1B6823F480632B4C1C3C236000BF0F
:101CF000294B183B1B6803F00402009B5B1C0093FC
:101D0000009BB3F5803F01D0002AF1D0224B183B55
:101D10001B6813F0040F01D1002000E00120FF2315
:101D20001D4C236018BDCA221B4B1A6053221A6037
:101D3000194A1C3A126822F48022174B1C3B1A6085
:101D40001A46126840EA01031A43134B1C3B1A60FF
:101D5000FF22114B1A6070470F481C38006800F4CE
:101D600080207047CA220C4B1A6053221A600A4A1C
:101D70001C3A126822F4E002074B1C3B1A601A4618
:101D8000126840EA01031A43034B1C3B1A60FF220E
:101D9000014B1A6070470000242800403FFFFF00FD
:101DA00070B504460D460026CA20F6490860532047
:101DB0000860FFF7E7FB00B907E044EA0500F149D6
:101DC0000C390860FFF76EFC0126FF20ED49086022
:101DD000304670BD30B504460025CA20E949086088
:101DE00053200860FFF7CEFB00B914E044B1E5488A
:101DF0001C38006840F08000E2491C39086007E0A8
:101E0000E0481C38006820F08000DE491C3908607A
:101E1000FFF748FC0125FF20DA490860284630BD5D
:101E2000CA21D84A11605321116040B1D5491C39EB
:101E3000096841F40001D34A1C3A116007E0D14916
:101E40001C39096821F40001CE4A1C3A1160FF21B7
:101E5000CC4A11607047CA21CA4A116053211160EF
:101E6000C8491C39096821F40021C64A1C3A11608E
:101E70001146096801431160FF21C24A1160704791
:101E800070B5034600200024CA25BE4E3560532598
:101E90003560BC4D183D2D6815F4803F0AD000E038
:101EA000641CB84D183D2D6815F4803F02D0B4F580
:101EB000003FF5D1B34D183D2D6815F4803F07D193
:101EC00043EA01051543AF4E18363560012000E0A6
:101ED0000020FF25AB4E356070BD10B50A460021CD
:101EE000A84B1C3B1B6840F6080423EA04011AB106
:101EF00040F40063194300E00143CA23A14C23606E
:101F0000532323609F4B1C3B1960FF23236010BDAC
:101F10002DE9F04180460C461546002600279948D9
:101F20000C300068984900EA0106964810300068B5
:101F3000964900EA0107C6F305402070C6F3062063
:101F4000607006F07F00A07006F48000000CE07066
:101F50000020E870C7F30420687007F03F00A87005
:101F6000C7F342302870B8F1000F17D12078FFF77F
:101F700032FC20706078FFF72EFC6070A078FFF7CD
:101F80002AFCA0706878FFF726FC6870A878FFF735
:101F900022FCA8702878FFF71EFC2870BDE8F081AD
:101FA000784814300068704741B9764A1C3212688C
:101FB00022EA4002734B1C331A6007E0714A1C325C
:101FC000126842EA40026F4B1C331A60704739B105
:101FD0006C4A1C32126802436A4B1C331A6006E0DA
:101FE000684A1C3212688243664B1C331A60704781
:101FF00064491C31096821F4C051624A1C321160E5
:10200000114609680143116070475E491C31096837
:1020100021F4E0615B4A1C321160114609680143FA
:102020001160704757491C31096821F4C041554A75
:102030001C3211601146096801431160704740B1BC
:1020400050491C31096841F080014E4A1C32116030
:1020500007E04C491C31096821F08001494A1C32D3
:102060001160704740B147491C31096821F40041B3
:10207000444A1C32116007E042491C31096841F4AE
:102080000041404A1C321160704708B5002200929E
:102090003C4A2C320092009A02EB80020092009A95
:1020A000116008BD08B501460020009035482C306D
:1020B0000090009800EB810000900098006808BD37
:1020C00030491C31096821F480312E4A1C321160DC
:1020D000114609680143116070472A491C3109689B
:1020E00021F40031274A1C3211601146096801436E
:1020F0001160704723491C31096821F48021214A6D
:102100001C32116011460968014311607047F0B537
:1021100004460D4600270026CA201A4908605320AD
:10212000086018481838006810F0080F0AD000E05E
:10213000761C14481838006810F0080F02D0B6F565
:10214000805FF5D10F481838006810F0080F13D1E0
:102150000C481C38006810F0100F0BD145EA040041
:10216000084908310860FFF7DFF908B9002704E0E3
:10217000012702E0002700E00027FF200149086056
:102180003846F0BD242800407F7F7F003FFFFF00DE
:10219000CA223D4B1A6053221A6091B13A4A1C3A46
:1021A000126820F004031A43374B1C3B1A60364A6E
:1021B0001C32126800F004031A43334B1C331A60BC
:1021C00011E0314A1C3A126820F004039A432E4B66
:1021D0001C3B1A602C4A1C32126800F004039A431C
:1021E000294B1C331A60FF22274B1A60704710B529
:1021F000014600200022244B183B1B68234C03EAB5
:1022000004020A4201D0012000E0002010BD81B28A
:1022100041F080011C4A183A126802F0800262EA1A
:102220000101194A183A1160704730B50146002083
:1022300000220023144C1C34246804F00402124CC5
:102240001C3C24680C4002EAD13544EA05030E4CDC
:10225000183C246804EA111223B11404240C01D0A0
:10226000012000E0002030BD002101098AB242F0C7
:102270008002054B183B1B6803F0800363EA0202EF
:10228000014B183B1A607047242800407F3F010033
:1022900010B50121C802FFF7B5F800214FF4006026
:1022A000FFF7B0F810BD00216B4A116847F6FF62D6
:1022B0009143027D83681A4343681A43C3681A43F3
:1022C00003681A4303691A431143634A1160704754
:1022D00000210175016041608160C160016170474A
:1022E0005E49086070475C49091F086070475A489A
:1022F000001F006800F0030070470021564B1B1DB3
:1023000002681A601A1D11686FF30A01D0E90123EF
:102310001A43C3681A4303691A4311434E4A0832E9
:10232000116070470021016041608160C1600161FE
:10233000704749480C300068C0B2704708B5014684
:102340000020009044481030084400900098006835
:1023500008BD0021404B203302681A601B1D4268F3
:102360001A601A1D116821F0F701D0E902231A43FF
:1023700003691A4343691A431143374A28321160EB
:1023800070474FF0FF310160002141608160C16002
:1023900001614161704730482C30006870472E4819
:1023A0007C30006870472C497C31086070472A48AF
:1023B0004430006870472A49086070472849091D61
:1023C00008607047264908310860704724490C317D
:1023D00008607047234908607047234908607047C8
:1023E00001218143214A11607047214908607047EB
:1023F0001B4914390860704739B1174A38321268DE
:102400000243154B38331A6006E0134A383212681B
:102410008243114B38331A607047014600200E4A40
:10242000303212680A4201D0012000E000207047DB
:10243000094934310860704701460020064A3032AD
:1024400012680A4201D0012000E0002070470249D2
:102450003431086070470000042C0140A080254200
:10246000A0852542AC812542B0812542B481254218
:10247000B881254210B501218803FEF7C3FF002172
:102480004FF48040FEF7BEFF10BD1A490860704748
:1024900030B500228B071C0F0F2303FA04F2154BF3
:1024A00008338C1053F824309343124C08348D10A9
:1024B00044F8253023468C1053F824308C07240F21
:1024C00000FA04F423430B4C08348D1044F82530F3
:1024D00030BD09490860704708490860704700200E
:1024E00004492031096811F4807F01D0012000E007
:1024F0000020704700380140DC00274200042742DA
:1025000010B50446F748844208D101211020FEF797
:1025100079FF00211020FEF775FF3EE0F24884426B
:1025200009D101214804FEF75CFF00214FF400307F
:10253000FEF757FF31E0ED48844209D101218804BC
:10254000FEF74FFF00214FF48020FEF74AFF24E002
:10255000E748844209D10121C804FEF742FF002167
:102560004FF40020FEF73DFF17E0E248844209D116
:1025700001210805FEF735FF00214FF48010FEF71A
:1025800030FF0AE0DC48844207D101212020FEF719
:1025900039FF00212020FEF735FF10BD2DE9FF4750
:1025A00005460E460024A14600BFA046B08900B1F2
:1025B00000BF2C8A24F44054F08804432C82AC8958
:1025C00041F20C608443B088318908437189084323
:1025D0000443AC81AC8A24F44074B0890443AC82D7
:1025E0006846FEF7CEFDBF48854202D0C24885420C
:1025F00002D1DDF80C9001E0DDF80890A88910F414
:10260000004F08D009EBC90000EB09103168490000
:10261000B0FBF1F707E009EBC90000EB09103168E6
:102620008900B0FBF1F76420B7FBF0F0040120094A
:10263000642101FB1078A88910F4004F08D03220E3
:1026400000EBC800B0FBF1F000F00700044308E025
:10265000322000EB08106421B0FBF1F000F00F0015
:1026600004432C81BDE8FF874FF41651016000211F
:102670008180C18001810C214181002181817047CD
:1026800010B502460020108A20F470600B884C8838
:1026900023438C882343CC8823431843108210BDE6
:1026A0000021018041808180C180704721B18289F1
:1026B00042F40052828104E082894DF6FF731A4091
:1026C00082817047028B02F47F420283028B0A43AD
:1026D0000283704721B1828942F40042828103E083
:1026E0008289C2F30E028281704721B1828A42F44C
:1026F0000062828204E0828A4FF2FF731A40828273
:102700007047C1F308028280704701468888C0F391
:1027100008007047028A4FF6F0731A400282028A5C
:102720000A430282704721B1828942F0020282810B
:1027300004E082894FF6FD731A40828170478289D6
:102740004FF2FF731A40828182890A438281704767
:10275000028A4FF6DF731A400282028A0A4302821B
:10276000704721B1028A42F48042028204E0028A68
:102770004BF6FF731A4002827047818941F00101D4
:102780008181704721B1828A42F00802828204E08E
:10279000828A4FF6F7731A4082827047028BD2B258
:1027A0000283028B42EA01220283704721B1828AAE
:1027B00042F02002828204E0828A4FF6DF731A40E0
:1027C0008282704721B1828A42F01002828204E044
:1027D000828A4FF6EF731A4082827047828A4FF6E0
:1027E000FB731A408282828A0A438282704721B137
:1027F000828A42F00202828204E0828A4FF6FD73EE
:102800001A40828270471AB1838A0B43838202E0A6
:10281000838A8B4383827047F0B5034600240026E9
:1028200000250020A1F510676A3F00D100BF1846BF
:10283000C1F3421401F01F06012707FA06F5012C27
:1028400001D10C3004E0022C01D1103000E0143032
:102850001AB107682F43076002E00768AF430760BB
:10286000F0BD02460020B1F5007F00D100BF138803
:102870000B4201D0012000E00020704701F40072FB
:10288000B2F5007F00D100BFCA430280704770B527
:1028900002460024002300250020A1F510666A3EB0
:1028A00000D100BFC1F3421501F01F03012606FA53
:1028B00003F3012D02D19689334006E0022D02D1A7
:1028C000168A334001E0968A33400C12012606FA3C
:1028D00004F41688344013B10CB1012000E000204C
:1028E00070BD00000010014000440040004800405E
:1028F000004C0040005000400014014010B5002280
:102900000023A1F510646A3C00D100BF0A12012423
:102910009440A3B2DC43048010BD00001CB5044603
:10292000FE4951F824000121FEF7C0FCFC4830F8B4
:102930001400009001208DF8040000208DF806009E
:1029400001208DF8070002208DF80500F54951F8A7
:1029500024006946FEF7E6F91CBDF14931F8101074
:10296000F04A52F8202011837047ED4931F81010D9
:10297000EC4A52F8202051837047EA4951F8201060
:102980004969E74A32F810205140E64A52F82020BF
:102990005161704730B585B004460D46E24951F8A3
:1029A00024000121FEF782FC01218803FEF7C2FC0E
:1029B00000208DF810008DF81300DC4830F814006A
:1029C0000390DB4951F8240003A9FEF7ABF9012D70
:1029D00024D1D84A115DD84A105DFFF759FDD74878
:1029E00030F81400019000208DF8080008208DF8C0
:1029F000090001208DF80A0001A8FEF7A5F8D048CB
:102A0000005D8DF800000F208DF801008DF80200A8
:102A100001208DF803006846FDF749FE05B030BD82
:102A200010B50446C14A32F81410C14A52F82400C5
:102A3000FEF7DAF910BD7CB504460D46C14951F8E0
:102A40002410C14A52F8242041EA02000121FEF775
:102A50002DFCBE4951F824000121FEF76BFCBC4B54
:102A600013F81420BB4B33F81410BB4B53F824005D
:102A7000FEF7E3F9B94B13F81420B94B33F81410EF
:102A8000B84B53F82400FEF7D8F900208DF8060063
:102A900001208DF8070002208DF80400B24830F8BC
:102AA0001400009002208DF80500AB4951F8240075
:102AB0006946FEF737F902208DF80400AB4830F87C
:102AC00014000090A74951F824006946FEF72AF93E
:102AD000A74951F824002946FFF760FDA44951F8A1
:102AE00024000121FFF7E2FD7CBD1CB50020FFF7AB
:102AF000F7FB0020FFF7F7FBFFF7CAFB00214FF4BD
:102B00000060FEF717FC002208219A48FEF795F9AD
:102B1000002209219748FEF790F900220A219548E2
:102B2000FEF78BF900220B219248FEF786F900226E
:102B30000C219048FEF781F9002202218E48FEF711
:102B40007CF94FF47060009000208DF804008DF83F
:102B5000070069468748FEF7E5F8042000906946BB
:102B60008548FEF7DFF84FF48050009069468148B1
:102B7000FEF7D8F81CBD1CB501210E20FEF796FB10
:102B80000C2208217B48FEF758F90C2209217948CC
:102B9000FEF753F90C220A217648FEF74EF90C2273
:102BA0000B217448FEF749F90C2211467148FEF7D3
:102BB00044F90C2202217048FEF73FF94FF470608F
:102BC000009001208DF8050002208DF804000020FF
:102BD0008DF8060001208DF8070069466548FEF76C
:102BE000A1F80420009069466348FEF79BF84FF473
:102BF0008050009000208DF8070069465D48FEF780
:102C000091F84FF40040009000208DF8040001205E
:102C10008DF8070069465948FEF784F80121C8027B
:102C2000FEF788FB01218805FEF740FB1CBD30B58F
:102C30008FB004460D464FF0FA515148FDF7F8FEAB
:102C400000214F48FDF77CFE4D48FDF79DFD4FF0FC
:102C5000006000904B4801900294402003900020B7
:102C6000049005904FF480600690800007908000EB
:102C70000890002009904FF440300A9004200B90F7
:102C800003200C904FF400000D9080100E906946C8
:102C90003B48FDF71BFE012210213948FDF7DCFE01
:102CA00020213748FDF762FE01213548FDF748FE37
:102CB0000FB030BD30B58FB004460D464FF0FA511D
:102CC0002F48FDF7B5FE00212D48FDF739FE2C48B1
:102CD000FDF75AFD4FF0006000902A4801900294E1
:102CE00000200390049005904FF4806006908000CF
:102CF000079080000890002009904FF440300A901F
:102D000004200B9003200C904FF400000D908010D5
:102D10000E9069461A48FDF7D9FD35E0302E0008BF
:102D2000282E000824000020442E0008402E000811
:102D3000340000204B2E00084A2E0008482E0008C0
:102D40004C2E0008582E0008602E0008502E000857
:102D5000782E0008702E0008400000207C2E00080D
:102D6000742E000848000020682E00086C2E000811
:102D70003800002000080240000C0240000402401D
:102D800058640240802C0140012210210648FDF7C2
:102D900063FE20210448FDF7E9FD01210248FDF70B
:102DA000CFFD0FB030BD000058640240704770473F
:102DB0007047754600F028F8AE4605006946534650
:102DC00020F00700854618B020B5FDF73BFABDE8B6
:102DD00020404FF000064FF000074FF000084FF082
:102DE000000B21F00701AC46ACE8C009ACE8C00913
:102DF000ACE8C009ACE8C0098D4670470446AFF3A3
:102E000000802046FDF709FA004870475400002072
:102E100001491820ABBEFEE72600020070474FF0C4
:102E20004070E1EE100A7047001000200040008062
:102E30000800000008000000080000000800000072
:102E40000100000001000000010000000600000079
:102E50002000000000000400040000000400000046
:102E6000040000000400000040000004800000088E
:102E700006000A0007000B00080007000800070012
:102E8000A02E00080000002054000000C40100082B
:102E9000F42E00085400002064060000E001000841
:102EA0000044950800000000000000000102030437
:102EB00006070809000000000102030401020304E0
:102EC00006070809000C0240000C0240000C0240FA
:102ED000000C024000000240001401400048004085
:102EE00000080240000802400008024000080240BA
:042EF00000000000DE
:0400000508000229C4
:00000001FF
