:020000040800F2
:1000000090060020290200087D0300087F030008F5
:1000100083030008870300088B030008000000002A
:100020000000000000000000000000008F03000836
:1000300091030008000000009303000895030008E6
:10004000430200084302000843020008430200087C
:100050004302000843020008970300084302000817
:10006000430200084302000843020008430200085C
:10007000430200084302000843020008430200084C
:10008000430200084302000843020008430200083C
:10009000430200084302000843020008430200082C
:1000A000430200084302000843020008430200081C
:1000B000430200084302000843020008430200080C
:1000C00043020008430200084302000843020008FC
:1000D00043020008430200084302000843020008EC
:1000E00043020008430200084302000843020008DC
:1000F00043020008430200084302000843020008CC
:1001000043020008430200084302000843020008BB
:1001100043020008430200084302000843020008AB
:10012000430200084302000843020008430200089B
:10013000430200084302000843020008430200088B
:10014000430200084302000843020008430200087B
:10015000430200084302000843020008430200086B
:10016000430200084302000843020008430200085B
:10017000430200084302000843020008430200084B
:10018000430200084302000800F002F800F03CF8C7
:100190000AA090E8000C82448344AAF10107DA45E2
:1001A00001D100F031F8AFF2090EBAE80F0013F0F8
:1001B000010F18BFFB1A43F0010318472C1300006E
:1001C0004C130000103A24BF78C878C1FAD85207FF
:1001D00024BF30C830C144BF04680C6070470000C1
:1001E0000023002400250026103A28BF78C1FBD840
:1001F000520728BF30C148BF0B6070471FB501F0E0
:100200006EF91FBD10B510BD01F033F91146FFF7AF
:10021000F5FF00F0A4F801F051F903B4FFF7F2FF85
:1002200003BC01F055F90000094880470948004720
:10023000FEE7FEE7FEE7FEE7FEE7FEE7FEE7FEE796
:10024000FEE7FEE704480549054A064B70470000F3
:100250008304000889010008900000209006002017
:10026000900200209002002000BF00BF3F4800889D
:10027000400040F6E441484340F6FF7190FBF1F046
:100280003B4908600846006808460068704700B5AA
:1002900099B00121880500F0ABFF0121080200F0B0
:1002A000EBFF344800F0BEFB002000903248019084
:1002B0002E48029000200390012004900020059019
:1002C00006904FF40060079080000890401109905C
:1002D00040020A9000200B9001200C9000200D900D
:1002E0000E906946234800F03FFC0121214800F0B0
:1002F00075FC00200F901090119012900FA800F044
:1003000093F9002013908DF8500001208DF85100D2
:10031000002015901690179001208DF8600013A909
:1003200015484C3800F051F9012113484C3800F0C1
:1003300076FA01231A4612210F484C3800F0D0F902
:10034000012000F0BCF901210B484C3800F072FA92
:10035000012109484C3800F083F919B000BDFFF7BE
:1003600096FF01E0FFF780FFFCE70000000000209F
:1003700004000020106402404C200140704700BF80
:10038000FEE700BFFEE700BFFEE700BFFEE77047E5
:1003900070477047704710B5012000F089FD10B11B
:1003A000012000F096FD10BD0CB5002001900090DA
:1003B0007548006840F480307349086000BF724897
:1003C000006800F4003000900198401C01900098F3
:1003D00018B90198B0F5A06FF1D16B48006810F41E
:1003E000003F02D00120009001E000200090009822
:1003F000012845D164484030006840F0805062498F
:10040000403108606148006840F480405F490860FE
:100410005D48083000685C4908310860084600689B
:1004200040F4004008600846006840F4A0500860AE
:100430005748091F0860081F006840F08070091FB6
:10044000086000BF5048006810F0007FFAD040F20A
:100450000560504908604C480830006820F00300EF
:100460004949083108600846006840F00200086009
:1004700000BF45480830006800F00C000828F8D19B
:100480000CBD10B54448006840F470004249086053
:100490003D48006840F001003B49086000203A49AF
:1004A00008310860384800683C490840364908600F
:1004B0003B48091D0860081F006820F48020091FC0
:1004C0000860002030490C310860FFF76DFF4FF0E5
:1004D000006031498039086010BD70B500200022ED
:1004E000022300240221284D08352D6805F00C0058
:1004F00020B1042806D0082834D107E0294D2A4E1F
:10050000356033E0294D284E35602FE01E4D2D1DFE
:100510002D68C5F380541C4D2D1D2D6805F03F013D
:1005200054B1224DB5FBF1F5174E361D3668C6F3B2
:10053000881605FB06F209E01A4DB5FBF1F5124EDF
:10054000361D3668C6F3881605FB06F20E4D2D1DC6
:100550002D68C5F301456D1C6B00B2FBF3F5124E1F
:10056000356003E00F4D104E356000BF00BF064DF3
:1005700008352D68C5F303150D4E705D0A4D2D68C5
:10058000C540094E356070BD003802400070004023
:1005900008484006003C024088ED00E0FFFFF6FE00
:1005A000103000240024F4000800002000127A001B
:1005B0000C00002010B50121080200F0C5FE00214A
:1005C0004FF4807000F0C0FE10BD30B50246002030
:1005D00000235068F84C20400D790C6844EA05244B
:1005E000204350609068F54C2040D1E903542C43DF
:1005F0008D682C434D7944EA450420439060D06ACD
:1006000020F470000C7D641EE4B2234340EA0350E2
:10061000D06230BD00210160017141718160C16013
:1006200001610121017570470021E54A1168E54A21
:1006300001EA0201D0E9002342EA0302836842EAA8
:100640000302C36842EA030242EA0101DE4AC2F839
:10065000041370470021016041608160C1607047F0
:1006600021B1826842F00102826003E0826822F0D8
:100670000102826070470A4600214168D34B19404D
:100680001143416070474162826270470A4600210F
:10069000416821F01F0111434160704738B1C849DA
:1006A000096841F40001C84AC2F8041306E0C449CD
:1006B000096821F40001C44AC2F80413704738B134
:1006C000BF49096841F48001BF4AC2F8041306E03B
:1006D000BB49096821F48001BB4AC2F80413704782
:1006E000F0B504460D4600200021092D11DDE0681B
:1006F000A5F10A0606EB4607072606FA07F1884326
:10070000A5F10A0606EB460603FA06F10843E06087
:100710000CE0206905EB4507072606FA07F1884338
:1007200005EB450603FA06F108432061072A0FDAB4
:10073000606B561E06EB86071F2606FA07F18843F4
:10074000561E06EB860605FA06F10843606322E0B2
:100750000D2A0FDA206BD61F06EB86071F2606FA36
:1007600007F18843D61F06EB860605FA06F1084313
:10077000206310E0E06AA2F10D0606EB86071F2653
:1007800006FA07F18843A2F10D0606EB860605FA84
:1007900006F10843E062F0BD816841F0804181606C
:1007A0007047014600208A6812F4800F01D00120B2
:1007B00000E00020704721B1826842F480628260CC
:1007C00003E0826822F480628260704721B182680F
:1007D00042F00202826003E0826822F0020282603C
:1007E000704710B50A4600210023416821F460419A
:1007F000531E41EA4331416010BD21B1426842F4C9
:100800000062426003E0426822F400624260704786
:100810000146C86C80B270476D480068704721B1CE
:10082000826842F48072826003E0826822F48072FF
:100830008260704721B1826842F40072826003E0F6
:10084000826822F400728260704738B15C4909689E
:1008500041F400515C4AC2F8041306E058490968A3
:1008600021F40051584AC2F804137047F0B5044609
:100870001546002000220026092911DDE068A1F1BB
:100880000A0707EB470C072707FA0CF29043A1F180
:100890000A0707EB470703FA07F21043E0600CE092
:1008A000206901EB410C072707FA0CF2904301EB9A
:1008B000410703FA07F210432061A06BC0F3015611
:1008C000EF1C06F1010CA7EB0C0707EB870C1F27A9
:1008D00007FA0CF29043EF1C06F1010CA7EB0C0792
:1008E00007EB870701FA07F21043A063F0BD10B5CC
:1008F0000A4600210023816B21F44011531E41EA76
:100900000351816310BD08B5002300930090009B44
:100910000B440093009B1A6008BD0A4600218168C1
:1009200021F470211143816070470A4600218168DB
:1009300021F44011114381607047816841F48001C6
:1009400081607047014600208A6812F4800F01D050
:10095000012000E00020704721B1426842F480622B
:10096000426003E0426822F480624260704721B135
:10097000426842F48052426003E0426822F48052AE
:100980004260704708B5024600200090009201F1D5
:100990002800009B184400900098006880B208BDB1
:1009A00010B50B460021D9B2012404FA01F18AB135
:1009B00044680C43446010E0FFFEFFFCFDF7FFC0FD
:1009C00004230140E030FCFF00200140FFFD3FFF19
:1009D0000823014044688C43446010BD0246002057
:1009E00013680B4201D0012000E000207047CA4389
:1009F0000260704770B502460020002300240B12ED
:100A0000556801268E4005EA060415681D4202D08D
:100A10000CB1012000E0002070BD00220A12D34377
:100A200003607047016821F001010160002101604D
:100A300041608160C160016121214161DA498842E0
:100A400004D13D21D84A103A91608CE0D649183142
:100A5000884205D14FF47461D34A103A916082E024
:100A6000D1493031884205D14FF47411CE4A103A41
:100A7000916078E0CC494831884205D14FF07461EB
:100A8000C94A103A91606EE0C7496031884204D18A
:100A9000C649C54A103AD16065E0C34978318842F9
:100AA00004D1C349C04A103AD1605CE0BE499031DC
:100AB000884204D1BF49BC4A103AD16053E0BA49D8
:100AC000A831884205D14FF03D51B74A103AD16064
:100AD00049E0B949884204D13D21B74A083A11603A
:100AE00041E0B5491831884205D14FF47461B24AEA
:100AF000083A116037E0B0493031884205D14FF4EF
:100B00007411AD4A083A11602DE0AB494831884272
:100B100005D14FF07461A84A083A116023E0A64954
:100B20006031884204D1A149A34A121F11601AE022
:100B3000A1497831884204D19D499F4A121F116012
:100B400011E09D499031884204D19A499A4A121F76
:100B5000116008E09849A831884204D14FF03D5116
:100B6000954A121F1160704710B500220268934B1E
:100B70001A40CC680B6823434C6923438C69234398
:100B8000CC6923430C6A23434C6A23438C6A234376
:100B90004C6B23438C6B23431A430260426922F05F
:100BA0000702D1E90B3423431A4342610B694360C6
:100BB0004B6883608B68C36010BD00210160416099
:100BC0008160C160016141618161C1610162416215
:100BD0008162C162016341638163704721B1026830
:100BE00042F00102026003E0026822F001020260AA
:100BF000704721B1026842F40042026003E00268DB
:100C000022F400420260704721B1026842F02002E3
:100C1000026003E0026822F0200202607047416037
:100C200070470146486880B2704722B1036843F4B8
:100C30000023036003E0036823F4002303600161E1
:100C4000704721B1026842F48022026003E002682A
:100C500022F48022026070470AB1016100E0C160A5
:100C60007047014600200A6812F4002F01D00120CD
:100C700000E000207047014600200A6812F0010FD2
:100C800001D0012000E000207047014600204A69A1
:100C900002F03800704730B503460A4600200024B1
:100CA000454DAB4202D24049103901E0424910396A
:100CB00012F0005F01D04C6800E00C68404D2C4001
:100CC000144201D0012000E0002030BD02463A4B22
:100CD0009A4202D23448103801E03748103811F0F7
:100CE000005F03D0364B0B40C36002E0344B0B4037
:100CF0008360704710B511F0800F09D022B14369AD
:100D000043F08003436103E0436923F080034361C0
:100D100080290BD02AB1036801F01E04234303602D
:100D200004E0036801F01E04A343036010BD70B526
:100D300002460020002400251F4EB24202D21A4B68
:100D4000103B01E01C4B103B1E4E314206D01E26CC
:100D500006EAD124166806EA040502E0566906F0A0
:100D6000800511F0005F01D05C6800E01C68144E43
:100D700034400C4202D00DB1012000E0002070BDD3
:100D800002460D4B9A4202D20748103801E00A4849
:100D9000103811F0005F03D0094B0B40C36002E034
:100DA000074B0B4083607047106002403D000020FD
:100DB000400F002000003D20106402403F801CF0E6
:100DC0007D0F7D0F3C0F3C0F002044490860091D3A
:100DD0000860091D0860091D086041483F49143139
:100DE0000860704700213D498279002A3AD00A46BE
:100DF000126803689A430B461A600A1D126803685A
:100E00009A430B1D1A60027911440A6803681A4359
:100E10000A60324A0832126803689A432F4B08333B
:100E20001A601A1D126803689A432C4B0C331A601F
:100E30004279102A0ED11A1F126803681A43274BF1
:100E400008331A601A1D126803681A43234B0C33C7
:100E50001A600DE02149427911440A6803681A4377
:100E60000A6005E0027911440A6803689A430A603F
:100E700070470021016001710C21417100218171D5
:100E800070471649103109680143144A1032116045
:100E9000704701460020114A143212680A4201D0FC
:100EA000012000E0002070470C49143108607047B1
:100EB000014600200022094B1B6803EA0102074B90
:100EC00014331B680B4202D00AB1012000E000205D
:100ED000704702491431086070470000003C01402F
:100EE000FFFF7F00FA48006840F00100F849086001
:100EF0000020F74908310860F5480068F5490840C6
:100F0000F3490860F448091D0860081F006820F4D0
:100F10008020091F08600020ED490C3108607047EF
:100F20000021EB4A921C117011460870704710B5F1
:100F300001460022002300204A11012A02D1E44C7C
:100F4000236808E0022A03D1E14C7034236802E0F0
:100F5000DF4C7434236801F01F02012494401C42CA
:100F600001D0012000E0002010BD38B50020009025
:100F70000024002500BF3120FFF7D9FF0546009867
:100F8000401C00900098B0F5A06F01D0002DF2D069
:100F90003120FFF7CCFF08B1012400E000242046F7
:100FA00038BD01460020CA4A106820F0F80040EA27
:100FB000C10010607047C949086070470021C44AE9
:100FC000703211701170012802D004280AD104E097
:100FD0000121BF4A7032117005E00521BC4A703210
:100FE000117000E000BF00BF7047BD490860704746
:100FF00070B5049C41EA82150126C6EB530645EA0A
:101000000645054345EA0465B14E361D356070BDA1
:10101000B24908667047820142EA0172AC4B8433E0
:101020001A607047AD4988667047AC49C86470471C
:1010300002460020A64B0833186820F0EC6042EA14
:1010400001031843A24B0833186070470246002082
:101050009F4B0833186820F0784042EA0103184398
:101060009B4B08331860704701460020984A0832AD
:10107000106820F00300084310607047944808305F
:10108000006800F00C00704701460020904A0832CA
:10109000106820F0F00008431060704701460020FF
:1010A0008B4A0832106820F4E05008431060704703
:1010B00001460020864A0832106820F4604040EA69
:1010C000C10010607047F0B5002100220024022505
:1010D000002602237E4F08373F6807F00C0121B13C
:1010E000042905D0082937D105E07E4F076036E096
:1010F0007D4F076033E0764F3F1D3F68C7F3805652
:10110000734F3F1D3F6807F03F036EB1764FB7FB4B
:10111000F3F7DFF8BCC10CF1040CDCF800C0CCF331
:10112000881C07FB0CF40CE06E4FB7FBF3F7DFF8FD
:10113000A0C10CF1040CDCF800C0CCF3881C07FB48
:101140000CF4634F3F1D3F68C7F301477F1C7D00D0
:10115000B4FBF5F7076002E0624F076000BF00BF15
:101160005B4F08373F6807F0F00109095F4F7A5C71
:101170000768D7404760564F08373F6807F4E0518B
:10118000890A5A4F7A5C4768D7408760504F0837C2
:101190003F6807F46041490B544F7A5C4768D74079
:1011A000C760F0BD002100F44072B2F5407F0AD163
:1011B000474A0832116821F4F8114D4A02401143A0
:1011C000434A08321160424A70321268C0F30B037E
:1011D0001A433F4B70331A607047414944390860E5
:1011E00070473F494039086070474249086070477E
:1011F00039B1374A303212680243354B30331A6006
:1012000006E0334A303212688243314B30331A6081
:10121000704739B12E4A3432126802432C4B3433B2
:101220001A6006E02A4A343212688243284B34336B
:101230001A60704739B1264A383212680243244B8B
:1012400038331A6006E0224A383212688243204B53
:1012500038331A60704739B11D4A40321268024370
:101260001B4B40331A6006E0194A40321268824331
:10127000174B40331A60704739B1154A443212682F
:101280000243134B44331A6006E0114A4432126899
:1012900082430F4B44331A60704739B10C4A103205
:1012A000126802430A4B10331A6006E0084A1032F3
:1012B00012688243064B10331A607047E1B1044A4A
:1012C000143212680243024B14331A6019E0000012
:1012D00000380240FFFFF6FE1030002400004742B5
:1012E000800E47420024F40000127A001C00002007
:1012F000FFFCFF0F5C0147425B4A126882435A4B76
:101300001A60704739B1584A121D12680243564B91
:101310001B1D1A6006E0544A121D12688243524B8C
:101320001B1D1A60704739B14F4A0C3212680243D4
:101330004D4B0C331A6006E04B4A0C321268824364
:10134000494B0C331A60704739B1474A1032126862
:101350000243454B10331A6006E0434A10321268CC
:101360008243414B10331A60704739B13E4A3C32D8
:10137000126802433C4B3C331A6006E03A4A3C3266
:1013800012688243384B3C331A60704739B1364A91
:10139000403212680243344B40331A6006E0324A4E
:1013A000403212688243304B40331A60704739B183
:1013B0002D4A4432126802432B4B44331A6006E034
:1013C000294A443212688243274B44331A607047DB
:1013D00039B1254A4C3212680243234B4C331A6010
:1013E00006E0214A4C32126882431F4B4C331A608C
:1013F000704739B11C4A5032126802431A4B5033BD
:101400001A6006E0184A503212688243164B503375
:101410001A60704739B1144AD21F12780243124B36
:10142000DB1F1A7006E0104AD21F127882430E4B5F
:10143000DB1F1A7070470C486030006840F0807005
:10144000094960310860704701460020064A083AA1
:1014500012680A4201D0012000E0002070470249D2
:10146000891F0870704700001438024070477047A9
:101470007047754600F028F8AE46050069465346A9
:1014800020F00700854618B020B5FEF7DBFEBDE86A
:1014900020404FF000064FF000074FF000084FF0DB
:1014A000000B21F00701AC46ACE8C009ACE8C0096C
:1014B000ACE8C009ACE8C0098D4670470446AFF3FC
:1014C00000802046FEF7A9FE004870472C0000204F
:1014D00001491820ABBEFEE72600020070474FF01E
:1014E0004070E1EE100A7047081500080000002067
:1014F0002C000000C4010008341500082C00002056
:1015000064060000E0010008000000000000000088
:1015100000449508000000000000000001020304E0
:101520000607080900000000010203040102030489
:041530000607080999
:0400000508000229C4
:00000001FF
