:020000040800F2
:1000000078060020290200086D0200086F0200082F
:1000100073020008770200087B020008000000005D
:100020000000000000000000000000007F02000847
:100030008102000800000000830200088502000819
:10004000430200084302000843020008430200087C
:100050004302000843020008870200084302000828
:10006000430200084302000843020008430200085C
:10007000430200084302000843020008430200084C
:10008000430200084302000843020008430200083C
:10009000430200084302000843020008430200082C
:1000A000430200084302000843020008430200081C
:1000B000430200084302000843020008430200080C
:1000C00043020008430200084302000843020008FC
:1000D00043020008430200084302000843020008EC
:1000E00043020008430200084302000843020008DC
:1000F00043020008430200084302000843020008CC
:1001000043020008430200084302000843020008BB
:1001100043020008430200084302000843020008AB
:10012000430200084302000843020008430200089B
:10013000430200084302000843020008430200088B
:10014000430200084302000843020008430200087B
:10015000430200084302000843020008430200086B
:10016000430200084302000843020008430200085B
:10017000430200084302000843020008430200084B
:10018000430200084302000800F002F800F03CF8C7
:100190000AA090E8000C82448344AAF10107DA45E2
:1001A00001D100F031F8AFF2090EBAE80F0013F0F8
:1001B000010F18BFFB1A43F0010318478004000029
:1001C000A0040000103A24BF78C878C1FAD85207BA
:1001D00024BF30C830C144BF04680C6070470000C1
:1001E0000023002400250026103A28BF78C1FBD840
:1001F000520728BF30C148BF0B6070471FB500F0E1
:1002000018FA1FBD10B510BD00F0DDF91146FFF75B
:10021000F5FF00F029F800F0FBF903B4FFF7F2FF57
:1002200003BC00F0FFF90000094880470948004777
:10023000FEE7FEE7FEE7FEE7FEE7FEE7FEE7FEE796
:10024000FEE7FEE704480549054A064B70470000F3
:100250007303000889010008780000207806002058
:10026000780200207802002000207047704700BF0D
:10027000FEE700BFFEE700BFFEE700BFFEE77047F6
:1002800070477047704710B5012000F07FF910B13A
:10029000012000F08CF910BD0CB5002001900090F9
:1002A0007548006840F480307349086000BF7248A8
:1002B000006800F4003000900198401C0190009804
:1002C00018B90198B0F5A06FF1D16B48006810F42F
:1002D000003F02D00120009001E000200090009833
:1002E000012845D164484030006840F080506249A0
:1002F000403108606148006840F480405F49086010
:100300005D48083000685C490831086008460068AC
:1003100040F4004008600846006840F4A0500860BF
:100320005748091F0860081F006840F08070091FC7
:10033000086000BF5048006810F0007FFAD040F21B
:100340000560504908604C480830006820F0030000
:100350004949083108600846006840F0020008601A
:1003600000BF45480830006800F00C000828F8D1AC
:100370000CBD10B54448006840F470004249086064
:100380003D48006840F001003B49086000203A49C0
:1003900008310860384800683C4908403649086020
:1003A0003B48091D0860081F006820F48020091FD1
:1003B0000860002030490C310860FFF76DFF4FF0F6
:1003C000006031498039086010BD70B500200022FE
:1003D000022300240221284D08352D6805F00C0069
:1003E00020B1042806D0082834D107E0294D2A4E30
:1003F000356033E0294D284E35602FE01E4D2D1D10
:100400002D68C5F380541C4D2D1D2D6805F03F014E
:1004100054B1224DB5FBF1F5174E361D3668C6F3C3
:10042000881605FB06F209E01A4DB5FBF1F5124EF0
:10043000361D3668C6F3881605FB06F20E4D2D1DD7
:100440002D68C5F301456D1C6B00B2FBF3F5124E30
:10045000356003E00F4D104E356000BF00BF064D04
:1004600008352D68C5F303150D4E705D0A4D2D68D6
:10047000C540094E356070BD003802400070004034
:1004800008484006003C024088ED00E0FFFFF6FE11
:10049000103000240024F4000000002000127A0034
:1004A00004000020002044490860091D0860091D5F
:1004B0000860091D086041483F49143108607047D1
:1004C00000213D498279002A3AD00A461268036821
:1004D0009A430B461A600A1D126803689A430B1D63
:1004E0001A60027911440A6803681A430A60324AA2
:1004F0000832126803689A432F4B08331A601A1D9A
:10050000126803689A432C4B0C331A604279102A04
:100510000ED11A1F126803681A43274B08331A605A
:100520001A1D126803681A43234B0C331A600DE03E
:100530002149427911440A6803681A430A6005E0B8
:10054000027911440A6803689A430A6070470021DF
:10055000016001710C2141710021817170471649C0
:10056000103109680143144A103211607047014686
:100570000020114A143212680A4201D0012000E022
:10058000002070470C491431086070470146002074
:100590000022094B1B6803EA0102074B14331B6856
:1005A0000B4202D00AB1012000E00020704702494E
:1005B0001431086070470000003C0140FFFF7F00DD
:1005C000704770477047754600F028F8AE46050042
:1005D0006946534620F00700854618B020B5FFF75E
:1005E00031FEBDE820404FF000064FF000074FF00D
:1005F00000084FF0000B21F00701AC46ACE8C00941
:10060000ACE8C009ACE8C009ACE8C0098D46704749
:100610000446AFF300802046FFF7FFFD0048704717
:100620001400002001491820ABBEFEE7260002009E
:1006300070474FF04070E1EE100A70475C0600080A
:100640000000002014000000C4010008700600082B
:100650001400002064060000E00100080044950832
:100660000000000000000000010203040607080962
:0400000508000229C4
:00000001FF
