:020000040800F2
:10000000D806002029020008110400081304000883
:10001000170400081B0400081F040008000000006B
:1000200000000000000000000000000023040008A1
:100030002504000800000000270400082904000827
:10004000430200084302000843020008430200087C
:1000500043020008430200082B0400084302000882
:10006000430200084302000843020008430200085C
:10007000430200084302000843020008430200084C
:10008000430200084302000843020008430200083C
:10009000430200084302000843020008430200082C
:1000A000430200084302000843020008430200081C
:1000B000430200084302000843020008430200080C
:1000C00043020008430200084302000843020008FC
:1000D00043020008410300084302000843020008ED
:1000E00043020008430200084302000843020008DC
:1000F00043020008430200084302000843020008CC
:1001000043020008430200084302000843020008BB
:1001100043020008430200084302000843020008AB
:10012000430200084302000843020008430200089B
:10013000430200084302000843020008430200088B
:10014000430200084302000843020008430200087B
:10015000430200084302000843020008430200086B
:10016000430200084302000843020008430200085B
:10017000430200084302000843020008430200084B
:10018000430200084302000800F002F800F03CF8C7
:100190000AA090E8000C82448344AAF10107DA45E2
:1001A00001D100F031F8AFF2090EBAE80F0013F0F8
:1001B000010F18BFFB1A43F001031847A41E0000EB
:1001C000C41E0000103A24BF78C878C1FAD852077C
:1001D00024BF30C830C144BF04680C6070470000C1
:1001E0000023002400250026103A28BF78C1FBD840
:1001F000520728BF30C148BF0B6070471FB501F0E0
:10020000EEFE1FBD10B510BD01F0B3FE1146FFF7A5
:10021000F5FF00F07BF801F0D1FE03B4FFF7F2FF29
:1002200003BC01F0D5FE000009488047094800479B
:10023000FEE7FEE7FEE7FEE7FEE7FEE7FEE7FEE796
:10024000FEE7FEE704480549054A064B70470000F3
:100250001705000889010008D8000020D8060020F2
:10026000D8020020D802002000B587B0012110205C
:1002700000F0B4FF0121022000F06CFFC0200590C7
:1002800002208DF818008DF8190000208DF81A0052
:1002900001208DF81B0005A9574800F015FD072225
:1002A0000621554800F09BFD07221146524800F0F8
:1002B00096FD4FF4E13001900020ADF80800ADF854
:1002C0000A00ADF80C00ADF810000C20ADF80E00DF
:1002D00001A94A4801F002FA012240F2255147489B
:1002E00001F03AFB25208DF8000000208DF8010078
:1002F0008DF8020001208DF80300684600F0A9F98E
:1003000001213E4801F072FA07B000BDFFF7ACFFD3
:10031000032001F0A3FB00BFFEE770B505460C46C5
:100320000AE000BF288810F0400FFBD02178284653
:1003300001F087FA14F8010B20780028F1D170BD84
:1003400010B588B040F225512C4801F040FB002840
:100350004FD02A488088C4B22948007888B9002044
:100360002849087009E000212748264A127881545C
:1003700024480078401C2349087022480078182837
:10038000F1DB0A2C0DD01E480078182809DA1E4827
:100390001B49097844541A480078401C18490870D1
:1003A00026E01A49D1E90023D1E90201CDE904236D
:1003B000CDE90601154B1033D3E901021968DB685A
:1003C000CDE90223CDE9001004A90F4801F08EFD0C
:1003D00010B9032001F061FB69460B4801F086FD6E
:1003E00010B9032001F061FB00200549087000BF2F
:1003F00000BF08B010BD0000000402400010014022
:10040000000000200100002058000020E81F000824
:10041000704700BFFEE700BFFEE700BFFEE700BF7A
:10042000FEE7704770477047704710B5012000F035
:10043000C3FB10B1012000F0D0FB10BD0CB50020B3
:10044000019000907548006840F48030734908605E
:1004500000BF7248006800F4003000900198401C12
:100460000190009818B90198B0F5A06FF1D16B48D0
:10047000006810F4003F02D00120009001E000204D
:1004800000900098012845D164484030006840F051
:1004900080506249403108606148006840F4804003
:1004A0005F4908605D48083000685C4908310860B1
:1004B0000846006840F4004008600846006840F4C0
:1004C000A05008605748091F0860081F006840F0E6
:1004D0008070091F086000BF5048006810F0007F5E
:1004E000FAD040F20560504908604C480830006876
:1004F00020F003004949083108600846006840F0D0
:100500000200086000BF45480830006800F00C0099
:100510000828F8D10CBD10B54448006840F47000BC
:10052000424908603D48006840F001003B490860CE
:1005300000203A4908310860384800683C490840C2
:10054000364908603B48091D0860081F006820F410
:100550008020091F0860002030490C310860FFF737
:100560006DFF4FF0006031498039086010BD70B5F3
:1005700000200022022300240221284D08352D6886
:1005800005F00C0020B1042806D0082834D107E07B
:10059000294D2A4E356033E0294D284E35602FE035
:1005A0001E4D2D1D2D68C5F380541C4D2D1D2D682D
:1005B00005F03F0154B1224DB5FBF1F5174E361D44
:1005C0003668C6F3881605FB06F209E01A4DB5FB3E
:1005D000F1F5124E361D3668C6F3881605FB06F295
:1005E0000E4D2D1D2D68C5F301456D1C6B00B2FB32
:1005F000F3F5124E356003E00F4D104E356000BF2D
:1006000000BF064D08352D68C5F303150D4E705D0E
:100610000A4D2D68C540094E356070BD0038024056
:100620000070004008484006003C024088ED00E0B1
:10063000FFFFF6FE103000240024F4000400002028
:1006400000127A000800002033490143334A116048
:10065000704770B5002100230F22C47824B32F4CBB
:10066000246804F4E064C4F5E064C4F30721C1F134
:100670000404E3B20A4144789C40E1B28478144017
:1006800021430C07210E264C05786155047804F0AF
:100690001F050124AC4005786D114FF0E02606EBF4
:1006A0008505C5F8004109E0047804F01F04012520
:1006B000A5401C4C0678761144F8265070BD1A4AA5
:1006C0000A400243154B1B1F1A60704739B1134A89
:1006D000121D12680243114B1B1D1A6006E00F4ADF
:1006E000121D126882430D4B1B1D1A6070470428AF
:1006F00008D14FF0E021096941F004014FF0E022F8
:10070000116107E04FF0E021096921F004014FF089
:10071000E0221161704700000000FA050CED00E0D6
:1007200000E400E080E100E080FFFF1F016821F0AD
:10073000010101600021016041608160C1600161CF
:1007400021214161DA49884204D13D21D84A103A39
:1007500091608CE0D6491831884205D14FF474611C
:10076000D34A103A916082E0D1493031884205D1B4
:100770004FF47411CE4A103A916078E0CC49483178
:10078000884205D14FF07461C94A103A91606EE019
:10079000C7496031884204D1C649C54A103AD16080
:1007A00065E0C3497831884204D1C349C04A103A50
:1007B000D1605CE0BE499031884204D1BF49BC4A57
:1007C000103AD16053E0BA49A831884205D14FF0C0
:1007D0003D51B74A103AD16049E0B949884204D145
:1007E0003D21B74A083A116041E0B54918318842C5
:1007F00005D14FF47461B24A083A116037E0B0494C
:100800003031884205D14FF47411AD4A083A116075
:100810002DE0AB494831884205D14FF07461A84AB8
:10082000083A116023E0A6496031884204D1A14909
:10083000A34A121F11601AE0A1497831884204D1FD
:100840009D499F4A121F116011E09D4990318842D5
:1008500004D19A499A4A121F116008E09849A831B8
:10086000884204D14FF03D51954A121F11607047E4
:1008700010B500220268934B1A40CC680B682343E2
:100880004C6923438C692343CC6923430C6A23437B
:100890004C6A23438C6A23434C6B23438C6B234366
:1008A0001A430260426922F00702D1E90B34234364
:1008B0001A4342610B6943604B6883608B68C36075
:1008C00010BD0021016041608160C1600161416132
:1008D0008161C161016241628162C1620163416300
:1008E0008163704721B1026842F00102026003E0B7
:1008F000026822F001020260704721B1026842F4EE
:100900000042026003E0026822F400420260704785
:1009100021B1026842F02002026003E0026822F086
:10092000200202607047416070470146486880B20B
:10093000704722B1036843F40023036003E00368B7
:1009400023F4002303600161704721B1026842F47F
:100950008022026003E0026822F480220260704775
:100960000AB1016100E0C1607047014600200A68D9
:1009700012F4002F01D0012000E000207047014652
:1009800000200A6812F0010F01D0012000E00020D1
:100990007047014600204A6902F03800704730B5C0
:1009A00003460A4600200024454DAB4202D240498E
:1009B000103901E04249103912F0005F01D04C6853
:1009C00000E00C68404D2C40144201D0012000E0B2
:1009D000002030BD02463A4B9A4202D234481038C9
:1009E00001E03748103811F0005F03D0364B0B4060
:1009F000C36002E0344B0B408360704710B511F0C8
:100A0000800F09D022B1436943F08003436103E0C2
:100A1000436923F08003436180290BD02AB1036826
:100A200001F01E042343036004E0036801F01E0488
:100A3000A343036010BD70B50246002000240025CA
:100A40001F4EB24202D21A4B103B01E01C4B103B2E
:100A50001E4E314206D01E2606EAD124166806EA4A
:100A6000040502E0566906F0800511F0005F01D030
:100A70005C6800E01C68144E34400C4202D00DB19A
:100A8000012000E0002070BD02460D4B9A4202D2C8
:100A90000748103801E00A48103811F0005F03D011
:100AA000094B0B40C36002E0074B0B40836070476B
:100AB000106002403D000020400F002000003D205B
:100AC000106402403F801CF07D0F7D0F3C0F3C0FF7
:100AD000002044490860091D0860091D0860091DBF
:100AE000086041483F4914310860704700213D4982
:100AF0008279002A3AD00A46126803689A430B4664
:100B00001A600A1D126803689A430B1D1A60027965
:100B100011440A6803681A430A60324A08321268AC
:100B200003689A432F4B08331A601A1D1268036832
:100B30009A432C4B0C331A604279102A0ED11A1F9B
:100B4000126803681A43274B08331A601A1D12688B
:100B500003681A43234B0C331A600DE02149427994
:100B600011440A6803681A430A6005E002791144D7
:100B70000A6803689A430A607047002101600171A6
:100B80000C214171002181717047164910310968AB
:100B90000143144A10321160704701460020114A87
:100BA000143212680A4201D0012000E00020704790
:100BB0000C49143108607047014600200022094B9F
:100BC0001B6803EA0102074B14331B680B4202D077
:100BD0000AB1012000E0002070470249143108608A
:100BE00070470000003C0140FFFF7F0010B5044645
:100BF0008C48844208D10121084600F000FB002106
:100C0000012000F0FCFA5EE08748844208D101210F
:100C1000022000F0F4FA0021022000F0F0FA52E085
:100C20008248844208D10121042000F0E8FA002122
:100C3000042000F0E4FA46E07D48844208D1012116
:100C4000082000F0DCFA0021082000F0D8FA3AE091
:100C50007848844208D10121102000F0D0FA002108
:100C6000102000F0CCFA2EE07348844208D1012114
:100C7000202000F0C4FA0021202000F0C0FA22E079
:100C80006E48844208D10121402000F0B8FA0021CA
:100C9000402000F0B4FA16E06948844208D10121EE
:100CA000802000F0ACFA0021802000F0A8FA0AE0D1
:100CB0006448844207D10121801500F0A0FA002188
:100CC000A01500F09CFA10BDF0B50A4600210023E3
:100CD000002400BF3DE0012505FA01F3156805EA8F
:100CE00003049C4234D105684F000326BE40B5433F
:100CF000056015794E00B5400668354305601579E5
:100D0000012D02D01579022D16D185684F000326DA
:100D1000BE40B543856055794E00B5408668354381
:100D20008560456801268E40B543456045689679E3
:100D30008E40B6B235434560C5684F000326BE40BD
:100D4000B543C560D5794E00B540C6683543C5602A
:100D5000491C1029BFD3F0BD4FF6FF71016000217F
:100D6000017141718171C171704708B54FF48032D2
:100D70000092009A0A430092009AC261C161009AEF
:100D8000C261C2690092C269009208BD0246002099
:100D900013690B4201D0012000E00020704701469A
:100DA000086980B270470246002053690B4201D0A7
:100DB000012000E0002070470146486980B270477A
:100DC00001837047418370470AB1018300E041838A
:100DD00070474161704742694A4042617047F0B5CF
:100DE000002300244D07ED0E02FA05F3CE1000F1AA
:100DF000200555F826504E07F70E0F26BE40B54386
:100E0000CF1000F1200646F82750CE1000F1200543
:100E100055F8265045EA0304CE1000F1200545F8A8
:100E20002640F0BD000002400004024000080240DD
:100E3000000C024000100240001402400018024062
:100E4000001C024000200240FA48006840F0010007
:100E5000F84908600020F74908310860F548006843
:100E6000F5490840F3490860F448091D0860081F67
:100E7000006820F48020091F08600020ED490C3133
:100E8000086070470021EB4A921C117011460870EF
:100E9000704710B501460022002300204A11012AA4
:100EA00002D1E44C236808E0022A03D1E14C7034FB
:100EB000236802E0DF4C7434236801F01F02012430
:100EC00094401C4201D0012000E0002010BD38B544
:100ED000002000900024002500BF3120FFF7D9FF3B
:100EE00005460098401C00900098B0F5A06F01D016
:100EF000002DF2D03120FFF7CCFF08B1012400E033
:100F00000024204638BD01460020CA4A106820F05F
:100F1000F80040EAC10010607047C9490860704796
:100F20000021C44A703211701170012802D00428C7
:100F30000AD104E00121BF4A7032117005E0052199
:100F4000BC4A7032117000E000BF00BF7047BD495D
:100F50000860704770B5049C41EA82150126C6EB13
:100F6000530645EA0645054345EA0465B14E361D7C
:100F7000356070BDB24908667047820142EA01726D
:100F8000AC4B84331A607047AD4988667047AC49F2
:100F9000C864704702460020A64B0833186820F04A
:100FA000EC6042EA01031843A24B08331860704713
:100FB000024600209F4B0833186820F0784042EA30
:100FC000010318439B4B083318607047014600200B
:100FD000984A0832106820F00300084310607047F8
:100FE00094480830006800F00C007047014600206B
:100FF000904A0832106820F0F000084310607047F3
:10100000014600208B4A0832106820F4E050084363
:101010001060704701460020864A0832106820F4AC
:10102000604040EAC10010607047F0B50021002226
:1010300000240225002602237E4F08373F6807F070
:101040000C0121B1042905D0082937D105E07E4FD4
:10105000076036E07D4F076033E0764F3F1D3F6805
:10106000C7F38056734F3F1D3F6807F03F036EB1D3
:10107000764FB7FBF3F7DFF8BCC10CF1040CDCF8DA
:1010800000C0CCF3881C07FB0CF40CE06E4FB7FBE0
:10109000F3F7DFF8A0C10CF1040CDCF800C0CCF3CE
:1010A000881C07FB0CF4634F3F1D3F68C7F30147E3
:1010B0007F1C7D00B4FBF5F7076002E0624F07601C
:1010C00000BF00BF5B4F08373F6807F0F001090918
:1010D0005F4F7A5C0768D7404760564F08373F68D4
:1010E00007F4E051890A5A4F7A5C4768D740876015
:1010F000504F08373F6807F46041490B544F7A5C02
:101100004768D740C760F0BD002100F44072B2F5D7
:10111000407F0AD1474A0832116821F4F8114D4A3C
:1011200002401143434A08321160424A7032126849
:10113000C0F30B031A433F4B70331A6070474149A9
:101140004439086070473F49403908607047424958
:101150000860704739B1374A303212680243354B64
:1011600030331A6006E0334A303212688243314B22
:1011700030331A60704739B12E4A34321268024354
:101180002C4B34331A6006E02A4A34321268824308
:10119000284B34331A60704739B1264A3832126806
:1011A0000243244B38331A6006E0224A3832126870
:1011B0008243204B38331A60704739B11D4A4032A0
:1011C000126802431B4B40331A6006E0194A403252
:1011D00012688243174B40331A60704739B1154A81
:1011E000443212680243134B44331A6006E0114A3A
:1011F0004432126882430F4B44331A60704739B14E
:101200000C4A1032126802430A4B10331A6006E08F
:10121000084A103212688243064B10331A60704736
:10122000E1B1044A143212680243024B14331A60CB
:1012300019E0000000380240FFFFF6FE10300024E5
:1012400000004742800E47420024F40000127A005A
:1012500018000020FFFCFF0F5C0147425B4A126848
:1012600082435A4B1A60704739B1584A121D1268AE
:101270000243564B1B1D1A6006E0544A121D1268A9
:101280008243524B1B1D1A60704739B14F4A0C32D2
:10129000126802434D4B0C331A6006E04B4A0C3285
:1012A00012688243494B0C331A60704739B1474A80
:1012B000103212680243454B10331A6006E0434A6D
:1012C000103212688243414B10331A60704739B1B3
:1012D0003E4A3C32126802433C4B3C331A6006E003
:1012E0003A4A3C3212688243384B3C331A607047AA
:1012F00039B1364A403212680243344B40331A60E7
:1013000006E0324A403212688243304B40331A6062
:10131000704739B12D4A4432126802432B4B443393
:101320001A6006E0294A443212688243274B44334C
:101330001A60704739B1254A4C3212680243234B78
:101340004C331A6006E0214A4C32126882431F4B2C
:101350004C331A60704739B11C4A5032126802434C
:101360001A4B50331A6006E0184A50321268824312
:10137000164B50331A60704739B1144AD21F127895
:101380000243124BDB1F1A7006E0104AD21F12787C
:1013900082430E4BDB1F1A7070470C4860300068A8
:1013A00040F08070094960310860704701460020B4
:1013B000064A083A12680A4201D0012000E00020E3
:1013C00070470249891F08707047000014380240B6
:1013D00010B50121C802FFF769FF00214FF400603A
:1013E000FFF764FF10BD00216B4A116847F6FF62EA
:1013F0009143027D83681A4343681A43C3681A43C2
:1014000003681A4303691A431143634A1160704722
:1014100000210175016041608160C1600161704718
:101420005E49086070475C49091F086070475A4868
:10143000001F006800F0030070470021564B1B1D81
:1014400002681A601A1D11686FF30A01D0E90123BE
:101450001A43C3681A4303691A4311434E4A0832B8
:10146000116070470021016041608160C1600161CD
:10147000704749480C300068C0B2704708B5014653
:101480000020009044481030084400900098006804
:1014900008BD0021404B203302681A601B1D4268C2
:1014A0001A601A1D116821F0F701D0E902231A43CE
:1014B00003691A4343691A431143374A28321160BA
:1014C00070474FF0FF310160002141608160C160D1
:1014D00001614161704730482C30006870472E48E8
:1014E0007C30006870472C497C31086070472A487E
:1014F0004430006870472A49086070472849091D30
:1015000008607047264908310860704724490C314B
:101510000860704723490860704723490860704796
:1015200001218143214A11607047214908607047B9
:101530001B4914390860704739B1174A38321268AC
:101540000243154B38331A6006E0134A38321268EA
:101550008243114B38331A607047014600200E4A0F
:10156000303212680A4201D0012000E000207047AA
:10157000094934310860704701460020064A30327C
:1015800012680A4201D0012000E0002070470249A1
:101590003431086070470000042C0140A0802542CF
:1015A000A0852542AC812542B0812542B4812542E7
:1015B000B881254210B501218803FFF777FE00218D
:1015C0004FF48040FFF772FE10BD1A490860704763
:1015D00030B500228B071C0F0F2303FA04F2154BC2
:1015E00008338C1053F824309343124C08348D1078
:1015F00044F8253023468C1053F824308C07240FF0
:1016000000FA04F423430B4C08348D1044F82530C1
:1016100030BD0949086070470849086070470020DC
:1016200004492031096811F4807F01D0012000E0D5
:101630000020704700380140DC00274200042742A8
:1016400010B50446F748844208D101211020FFF765
:101650002DFE00211020FFF729FE3EE0F2488442D3
:1016600009D101214804FFF710FE00214FF400309A
:10167000FFF70BFE31E0ED48844209D101218804D7
:10168000FFF703FE00214FF48020FFF7FEFD24E06A
:10169000E748844209D10121C804FFF7F6FD002183
:1016A0004FF40020FFF7F1FD17E0E248844209D132
:1016B00001210805FFF7E9FD00214FF48010FFF735
:1016C000E4FD0AE0DC48844207D101212020FFF735
:1016D000EDFD00212020FFF7E9FD10BD2DE9FF47BA
:1016E00005460E460024A14600BFA046B08900B1C1
:1016F00000BF2C8A24F44054F08804432C82AC8927
:1017000041F20C608443B0883189084371890843F1
:101710000443AC81AC8A24F44074B0890443AC82A5
:101720006846FFF782FCBF48854202D0C248854226
:1017300002D1DDF80C9001E0DDF80890A88910F4E2
:10174000004F08D009EBC90000EB091031684900CF
:10175000B0FBF1F707E009EBC90000EB09103168B5
:101760008900B0FBF1F76420B7FBF0F00401200919
:10177000642101FB1078A88910F4004F08D03220B2
:1017800000EBC800B0FBF1F000F00700044308E0F4
:10179000322000EB08106421B0FBF1F000F00F00E4
:1017A00004432C81BDE8FF874FF4165101600021EE
:1017B0008180C18001810C2141810021818170479C
:1017C00010B502460020108A20F470600B884C8807
:1017D00023438C882343CC8823431843108210BDB5
:1017E0000021018041808180C180704721B18289C0
:1017F00042F40052828104E082894DF6FF731A4060
:1018000082817047028B02F47F420283028B0A437B
:101810000283704721B1828942F40042828103E051
:101820008289C2F30E028281704721B1828A42F41A
:101830000062828204E0828A4FF2FF731A40828241
:101840007047C1F308028280704701468888C0F360
:1018500008007047028A4FF6F0731A400282028A2B
:101860000A430282704721B1828942F002028281DA
:1018700004E082894FF6FD731A40828170478289A5
:101880004FF2FF731A40828182890A438281704736
:10189000028A4FF6DF731A400282028A0A430282EA
:1018A000704721B1028A42F48042028204E0028A37
:1018B0004BF6FF731A4002827047818941F00101A3
:1018C0008181704721B1828A42F00802828204E05D
:1018D000828A4FF6F7731A4082827047028BD2B227
:1018E0000283028B42EA01220283704721B1828A7D
:1018F00042F02002828204E0828A4FF6DF731A40AF
:101900008282704721B1828A42F01002828204E012
:10191000828A4FF6EF731A4082827047828A4FF6AE
:10192000FB731A408282828A0A438282704721B105
:10193000828A42F00202828204E0828A4FF6FD73BC
:101940001A40828270471AB1838A0B43838202E075
:10195000838A8B4383827047F0B5034600240026B8
:1019600000250020A1F510676A3F00D100BF18468E
:10197000C1F3421401F01F06012707FA06F5012CF6
:1019800001D10C3004E0022C01D1103000E0143001
:101990001AB107682F43076002E00768AF4307608A
:1019A000F0BD02460020B1F5007F00D100BF1388D2
:1019B0000B4201D0012000E00020704701F40072CA
:1019C000B2F5007F00D100BFCA430280704770B5F6
:1019D00002460024002300250020A1F510666A3E7F
:1019E00000D100BFC1F3421501F01F03012606FA22
:1019F00003F3012D02D19689334006E0022D02D176
:101A0000168A334001E0968A33400C12012606FA0A
:101A100004F41688344013B10CB1012000E000201A
:101A200070BD00000010014000440040004800402C
:101A3000004C0040005000400014014010B500224E
:101A40000023A1F510646A3C00D100BF0A120124F2
:101A50009440A3B2DC43048010BD00001CB50446D2
:101A6000FE4951F824000121FFF774FBFC4830F8CF
:101A70001400009001208DF8040000208DF806006D
:101A800001208DF8070002208DF80500F54951F876
:101A900024006946FFF718F91CBDF14931F8101010
:101AA000F04A52F8202011837047ED4931F81010A8
:101AB000EC4A52F8202051837047EA4951F820102F
:101AC0004969E74A32F810205140E64A52F820208E
:101AD0005161704730B585B004460D46E24951F872
:101AE00024000121FFF736FB01218803FFF776FB75
:101AF00000208DF810008DF81300DC4830F8140039
:101B00000390DB4951F8240003A9FFF7DDF8012D0C
:101B100024D1D84A115DD84A105DFFF759FDD74846
:101B200030F81400019000208DF8080008208DF88E
:101B3000090001208DF80A0001A8FEF7D7FFD04860
:101B4000005D8DF800000F208DF801008DF8020077
:101B500001208DF803006846FEF77BFD05B030BD1F
:101B600010B50446C14A32F81410C14A52F8240094
:101B7000FFF70CF910BD7CB504460D46C14951F87C
:101B80002410C14A52F8242041EA02000121FFF743
:101B9000E1FABE4951F824000121FFF71FFBBC4BBD
:101BA00013F81420BB4B33F81410BB4B53F824002C
:101BB000FFF715F9B94B13F81420B94B33F814108B
:101BC000B84B53F82400FFF70AF900208DF80600FF
:101BD00001208DF8070002208DF80400B24830F88B
:101BE0001400009002208DF80500AB4951F8240044
:101BF0006946FFF769F802208DF80400AB4830F819
:101C000014000090A74951F824006946FFF75CF8DA
:101C1000A74951F824002946FFF760FDA44951F86F
:101C200024000121FFF7E2FD7CBD1CB50020FFF779
:101C3000F7FB0020FFF7F7FBFFF7CAFB00214FF48B
:101C40000060FFF7CBFA002208219A48FFF7C7F897
:101C5000002209219748FFF7C2F800220A2195487F
:101C6000FFF7BDF800220B219248FFF7B8F80022D9
:101C70000C219048FFF7B3F8002202218E48FFF7AD
:101C8000AEF84FF47060009000208DF804008DF8DD
:101C9000070069468748FFF717F804200090694657
:101CA0008548FFF711F84FF480500090694681484D
:101CB000FFF70AF81CBD1CB501210E20FFF74AFAF8
:101CC0000C2208217B48FFF78AF80C220921794869
:101CD000FFF785F80C220A217648FFF780F80C22DE
:101CE0000B217448FFF77BF80C2211467148FFF76F
:101CF00076F80C2202217048FFF771F84FF47060FB
:101D0000009001208DF8050002208DF804000020CD
:101D10008DF8060001208DF8070069466548FEF73A
:101D2000D3FF0420009069466348FEF7CDFF4FF4CF
:101D30008050009000208DF8070069465D48FEF74E
:101D4000C3FF4FF40040009000208DF804000120F4
:101D50008DF8070069465948FEF7B6FF0121C80211
:101D6000FFF73CFA01218805FFF7F4F91CBD30B5F7
:101D70008FB004460D464FF0FA515148FEF72AFE47
:101D800000214F48FEF7AEFD4D48FEF7CFFC4FF067
:101D9000006000904B480190029440200390002086
:101DA000049005904FF480600690800007908000BA
:101DB0000890002009904FF440300A9004200B90C6
:101DC00003200C904FF400000D9080100E90694697
:101DD0003B48FEF74DFD012210213948FEF70EFE6B
:101DE00020213748FEF794FD01213548FEF77AFDA2
:101DF0000FB030BD30B58FB004460D464FF0FA51EC
:101E00002F48FEF7E7FD00212D48FEF76BFD2C481B
:101E1000FEF78CFC4FF0006000902A48019002947D
:101E200000200390049005904FF48060069080009D
:101E3000079080000890002009904FF440300A90ED
:101E400004200B9003200C904FF400000D908010A4
:101E50000E9069461A48FEF70BFD35E01020000889
:101E60000820000828000020242000082020000866
:101E7000380000202B2000082A2000082820000815
:101E80002C200008382000084020000830200008DE
:101E90005820000850200008440000205C20000862
:101EA000542000084C000020482000084C20000866
:101EB0003C00002000080240000C024000040240E8
:101EC00058640240802C0140012210210648FEF790
:101ED00095FD20210448FEF71BFD01210248FEF775
:101EE00001FD0FB030BD0000586402404FF0013CCE
:101EF00050F8042B51F8043B9A4221D1A2EB0C0379
:101F0000934313EACC1317D150F8042B51F8043B38
:101F10009A4215D1A2EB0C03934313EACC130BD1D5
:101F200050F8042B51F8043B9A4209D1A2EB0C0360
:101F3000934313EACC13DBD04FF00000704700BF8F
:101F4000D01A01BAB1FA81F101F0180122FA01F0B8
:101F5000CB40C1F12001DBB2C0B2C01A2CFA01F3B0
:101F6000D11A914311EAC311E6D170477047704707
:101F70007047754600F028F8AE460500694653469E
:101F800020F00700854618B020B5FEF75BF9BDE8E4
:101F900020404FF000064FF000074FF000084FF0D0
:101FA000000B21F00701AC46ACE8C009ACE8C00961
:101FB000ACE8C009ACE8C0098D4670470446AFF3F1
:101FC00000802046FEF729F9004870477400002081
:101FD00001491820ABBEFEE72600020070474FF013
:101FE0004070E1EE100A70474C4544360000000096
:101FF00000000000000000004C4544364F464600FB
:1020000000000000000000000010002000400080E0
:1020100008000000080000000800000008000000A0
:1020200001000000010000000100000006000000A7
:102030002000000000000400040000000400000074
:1020400004000000040000004000000480000008BC
:1020500006000A0007000B00080007000800070040
:10206000802000080000002058000000C401000883
:10207000D82000085800002080060000E001000879
:10208000000000000044950800000000000000006F
:10209000010203040607080900000000010203040E
:1020A0000102030406070809000C0240000C02406C
:1020B000000C0240000C02400000024000140140ED
:1020C00000480040000802400008024000080240AA
:0820D0000008024000000000BE
:0400000508000229C4
:00000001FF
